{"abi":[{"type":"constructor","inputs":[],"stateMutability":"nonpayable"},{"type":"function","name":"games","inputs":[{"name":"","type":"uint256","internalType":"uint256"}],"outputs":[{"name":"ipfsCid","type":"string","internalType":"string"},{"name":"creator","type":"address","internalType":"address"},{"name":"createdAt","type":"uint256","internalType":"uint256"},{"name":"name","type":"string","internalType":"string"},{"name":"gameType","type":"string","internalType":"string"}],"stateMutability":"view"},{"type":"function","name":"getGame","inputs":[{"name":"_gameId","type":"uint256","internalType":"uint256"}],"outputs":[{"name":"ipfsCid","type":"string","internalType":"string"},{"name":"creator","type":"address","internalType":"address"},{"name":"createdAt","type":"uint256","internalType":"uint256"},{"name":"name","type":"string","internalType":"string"},{"name":"gameType","type":"string","internalType":"string"}],"stateMutability":"view"},{"type":"function","name":"getGamesByCreator","inputs":[{"name":"_creator","type":"address","internalType":"address"}],"outputs":[{"name":"gameIds","type":"uint256[]","internalType":"uint256[]"}],"stateMutability":"view"},{"type":"function","name":"owner","inputs":[],"outputs":[{"name":"","type":"address","internalType":"address"}],"stateMutability":"view"},{"type":"function","name":"registerGame","inputs":[{"name":"_ipfsCid","type":"string","internalType":"string"},{"name":"_name","type":"string","internalType":"string"},{"name":"_gameType","type":"string","internalType":"string"}],"outputs":[{"name":"","type":"uint256","internalType":"uint256"}],"stateMutability":"nonpayable"},{"type":"function","name":"renounceOwnership","inputs":[],"outputs":[],"stateMutability":"nonpayable"},{"type":"function","name":"totalGames","inputs":[],"outputs":[{"name":"","type":"uint256","internalType":"uint256"}],"stateMutability":"view"},{"type":"function","name":"transferOwnership","inputs":[{"name":"newOwner","type":"address","internalType":"address"}],"outputs":[],"stateMutability":"nonpayable"},{"type":"function","name":"updateGame","inputs":[{"name":"_gameId","type":"uint256","internalType":"uint256"},{"name":"_newIpfsCid","type":"string","internalType":"string"}],"outputs":[],"stateMutability":"nonpayable"},{"type":"event","name":"GameRegistered","inputs":[{"name":"gameId","type":"uint256","indexed":true,"internalType":"uint256"},{"name":"creator","type":"address","indexed":true,"internalType":"address"},{"name":"ipfsCid","type":"string","indexed":false,"internalType":"string"},{"name":"name","type":"string","indexed":false,"internalType":"string"},{"name":"gameType","type":"string","indexed":false,"internalType":"string"},{"name":"timestamp","type":"uint256","indexed":false,"internalType":"uint256"}],"anonymous":false},{"type":"event","name":"GameUpdated","inputs":[{"name":"gameId","type":"uint256","indexed":true,"internalType":"uint256"},{"name":"newIpfsCid","type":"string","indexed":false,"internalType":"string"},{"name":"timestamp","type":"uint256","indexed":false,"internalType":"uint256"}],"anonymous":false},{"type":"event","name":"OwnershipTransferred","inputs":[{"name":"previousOwner","type":"address","indexed":true,"internalType":"address"},{"name":"newOwner","type":"address","indexed":true,"internalType":"address"}],"anonymous":false},{"type":"error","name":"OwnableInvalidOwner","inputs":[{"name":"owner","type":"address","internalType":"address"}]},{"type":"error","name":"OwnableUnauthorizedAccount","inputs":[{"name":"account","type":"address","internalType":"address"}]}],"bytecode":{"object":"0x608060405234801561000f575f5ffd5b50335f73ffffffffffffffffffffffffffffffffffffffff168173ffffffffffffffffffffffffffffffffffffffff1603610081575f6040517f1e4fbdf70000000000000000000000000000000000000000000000000000000081526004016100789190610196565b60405180910390fd5b6100908161009660201b60201c565b506101af565b5f5f5f9054906101000a900473ffffffffffffffffffffffffffffffffffffffff169050815f5f6101000a81548173ffffffffffffffffffffffffffffffffffffffff021916908373ffffffffffffffffffffffffffffffffffffffff1602179055508173ffffffffffffffffffffffffffffffffffffffff168173ffffffffffffffffffffffffffffffffffffffff167f8be0079c531659141344cd1fd0a4f28419497f9722a3daafe3b4186f6b6457e060405160405180910390a35050565b5f73ffffffffffffffffffffffffffffffffffffffff82169050919050565b5f61018082610157565b9050919050565b61019081610176565b82525050565b5f6020820190506101a95f830184610187565b92915050565b611978806101bc5f395ff3fe608060405234801561000f575f5ffd5b5060043610610091575f3560e01c806384280e361161006457806384280e36146101215780638da5cb5b1461013d5780639083e0161461015b578063a2f77bcc1461018b578063f2fde38b146101bf57610091565b8063117a5b90146100955780632c4e591b146100c957806349c42467146100e7578063715018a614610117575b5f5ffd5b6100af60048036038101906100aa9190610e4e565b6101db565b6040516100c0959493929190610f37565b60405180910390f35b6100d16103be565b6040516100de9190610f9d565b60405180910390f35b61010160048036038101906100fc9190611017565b6103c4565b60405161010e9190610f9d565b60405180910390f35b61011f61067b565b005b61013b600480360381019061013691906110c7565b61068e565b005b6101456107d7565b6040516101529190611124565b60405180910390f35b61017560048036038101906101709190611167565b6107fe565b6040516101829190611249565b60405180910390f35b6101a560048036038101906101a09190610e4e565b61099c565b6040516101b6959493929190610f37565b60405180910390f35b6101d960048036038101906101d49190611167565b610c40565b005b6001602052805f5260405f205f91509050805f0180546101fa90611296565b80601f016020809104026020016040519081016040528092919081815260200182805461022690611296565b80156102715780601f1061024857610100808354040283529160200191610271565b820191905f5260205f20905b81548152906001019060200180831161025457829003601f168201915b505050505090806001015f9054906101000a900473ffffffffffffffffffffffffffffffffffffffff16908060020154908060030180546102b190611296565b80601f01602080910402602001604051908101604052809291908181526020018280546102dd90611296565b80156103285780601f106102ff57610100808354040283529160200191610328565b820191905f5260205f20905b81548152906001019060200180831161030b57829003601f168201915b50505050509080600401805461033d90611296565b80601f016020809104026020016040519081016040528092919081815260200182805461036990611296565b80156103b45780601f1061038b576101008083540402835291602001916103b4565b820191905f5260205f20905b81548152906001019060200180831161039757829003601f168201915b5050505050905085565b60025481565b5f5f878790501161040a576040517f08c379a000000000000000000000000000000000000000000000000000000000815260040161040190611310565b60405180910390fd5b5f858590501161044f576040517f08c379a000000000000000000000000000000000000000000000000000000000815260040161044690611378565b60405180910390fd5b5f60025f815480929190610462906113c3565b9190505590506040518060a0016040528089898080601f0160208091040260200160405190810160405280939291908181526020018383808284375f81840152601f19601f8201169050808301925050505050505081526020013373ffffffffffffffffffffffffffffffffffffffff16815260200142815260200187878080601f0160208091040260200160405190810160405280939291908181526020018383808284375f81840152601f19601f82011690508083019250505050505050815260200185858080601f0160208091040260200160405190810160405280939291908181526020018383808284375f81840152601f19601f8201169050808301925050505050505081525060015f8381526020019081526020015f205f820151815f01908161059291906115d7565b506020820151816001015f6101000a81548173ffffffffffffffffffffffffffffffffffffffff021916908373ffffffffffffffffffffffffffffffffffffffff1602179055506040820151816002015560608201518160030190816105f891906115d7565b50608082015181600401908161060e91906115d7565b509050503373ffffffffffffffffffffffffffffffffffffffff16817f65e346f6e70c60254d49b5709a5cd2d0d168a4ac25cec9d5e9b41420e4be442e8a8a8a8a8a8a4260405161066597969594939291906116e0565b60405180910390a3809150509695505050505050565b610683610cc4565b61068c5f610d4b565b565b60025483106106d2576040517f08c379a00000000000000000000000000000000000000000000000000000000081526004016106c990611788565b60405180910390fd5b60015f8481526020019081526020015f206001015f9054906101000a900473ffffffffffffffffffffffffffffffffffffffff1673ffffffffffffffffffffffffffffffffffffffff163373ffffffffffffffffffffffffffffffffffffffff1614610773576040517f08c379a000000000000000000000000000000000000000000000000000000000815260040161076a906117f0565b60405180910390fd5b818160015f8681526020019081526020015f205f019182610795929190611818565b50827fa7c973ec6fbeb8c46538604af19a9fec25bff272778e40ad5530cbfff8605b148383426040516107ca939291906118e5565b60405180910390a2505050565b5f5f5f9054906101000a900473ffffffffffffffffffffffffffffffffffffffff16905090565b60605f5f90505f5f90505b600254811015610895578373ffffffffffffffffffffffffffffffffffffffff1660015f8381526020019081526020015f206001015f9054906101000a900473ffffffffffffffffffffffffffffffffffffffff1673ffffffffffffffffffffffffffffffffffffffff1603610888578180610884906113c3565b9250505b8080600101915050610809565b508067ffffffffffffffff8111156108b0576108af61140a565b5b6040519080825280602002602001820160405280156108de5781602001602082028036833780820191505090505b5091505f5f90505f5f90505b600254811015610994578473ffffffffffffffffffffffffffffffffffffffff1660015f8381526020019081526020015f206001015f9054906101000a900473ffffffffffffffffffffffffffffffffffffffff1673ffffffffffffffffffffffffffffffffffffffff16036109875780848380610967906113c3565b94508151811061097a57610979611915565b5b6020026020010181815250505b80806001019150506108ea565b505050919050565b60605f5f60608060025486106109e7576040517f08c379a00000000000000000000000000000000000000000000000000000000081526004016109de90611788565b60405180910390fd5b5f60015f8881526020019081526020015f206040518060a00160405290815f82018054610a1390611296565b80601f0160208091040260200160405190810160405280929190818152602001828054610a3f90611296565b8015610a8a5780601f10610a6157610100808354040283529160200191610a8a565b820191905f5260205f20905b815481529060010190602001808311610a6d57829003601f168201915b50505050508152602001600182015f9054906101000a900473ffffffffffffffffffffffffffffffffffffffff1673ffffffffffffffffffffffffffffffffffffffff1673ffffffffffffffffffffffffffffffffffffffff16815260200160028201548152602001600382018054610b0290611296565b80601f0160208091040260200160405190810160405280929190818152602001828054610b2e90611296565b8015610b795780601f10610b5057610100808354040283529160200191610b79565b820191905f5260205f20905b815481529060010190602001808311610b5c57829003601f168201915b50505050508152602001600482018054610b9290611296565b80601f0160208091040260200160405190810160405280929190818152602001828054610bbe90611296565b8015610c095780601f10610be057610100808354040283529160200191610c09565b820191905f5260205f20905b815481529060010190602001808311610bec57829003601f168201915b5050505050815250509050805f01518160200151826040015183606001518460800151955095509550955095505091939590929450565b610c48610cc4565b5f73ffffffffffffffffffffffffffffffffffffffff168173ffffffffffffffffffffffffffffffffffffffff1603610cb8575f6040517f1e4fbdf7000000000000000000000000000000000000000000000000000000008152600401610caf9190611124565b60405180910390fd5b610cc181610d4b565b50565b610ccc610e0c565b73ffffffffffffffffffffffffffffffffffffffff16610cea6107d7565b73ffffffffffffffffffffffffffffffffffffffff1614610d4957610d0d610e0c565b6040517f118cdaa7000000000000000000000000000000000000000000000000000000008152600401610d409190611124565b60405180910390fd5b565b5f5f5f9054906101000a900473ffffffffffffffffffffffffffffffffffffffff169050815f5f6101000a81548173ffffffffffffffffffffffffffffffffffffffff021916908373ffffffffffffffffffffffffffffffffffffffff1602179055508173ffffffffffffffffffffffffffffffffffffffff168173ffffffffffffffffffffffffffffffffffffffff167f8be0079c531659141344cd1fd0a4f28419497f9722a3daafe3b4186f6b6457e060405160405180910390a35050565b5f33905090565b5f5ffd5b5f5ffd5b5f819050919050565b610e2d81610e1b565b8114610e37575f5ffd5b50565b5f81359050610e4881610e24565b92915050565b5f60208284031215610e6357610e62610e13565b5b5f610e7084828501610e3a565b91505092915050565b5f81519050919050565b5f82825260208201905092915050565b8281835e5f83830152505050565b5f601f19601f8301169050919050565b5f610ebb82610e79565b610ec58185610e83565b9350610ed5818560208601610e93565b610ede81610ea1565b840191505092915050565b5f73ffffffffffffffffffffffffffffffffffffffff82169050919050565b5f610f1282610ee9565b9050919050565b610f2281610f08565b82525050565b610f3181610e1b565b82525050565b5f60a0820190508181035f830152610f4f8188610eb1565b9050610f5e6020830187610f19565b610f6b6040830186610f28565b8181036060830152610f7d8185610eb1565b90508181036080830152610f918184610eb1565b90509695505050505050565b5f602082019050610fb05f830184610f28565b92915050565b5f5ffd5b5f5ffd5b5f5ffd5b5f5f83601f840112610fd757610fd6610fb6565b5b8235905067ffffffffffffffff811115610ff457610ff3610fba565b5b6020830191508360018202830111156110105761100f610fbe565b5b9250929050565b5f5f5f5f5f5f6060878903121561103157611030610e13565b5b5f87013567ffffffffffffffff81111561104e5761104d610e17565b5b61105a89828a01610fc2565b9650965050602087013567ffffffffffffffff81111561107d5761107c610e17565b5b61108989828a01610fc2565b9450945050604087013567ffffffffffffffff8111156110ac576110ab610e17565b5b6110b889828a01610fc2565b92509250509295509295509295565b5f5f5f604084860312156110de576110dd610e13565b5b5f6110eb86828701610e3a565b935050602084013567ffffffffffffffff81111561110c5761110b610e17565b5b61111886828701610fc2565b92509250509250925092565b5f6020820190506111375f830184610f19565b92915050565b61114681610f08565b8114611150575f5ffd5b50565b5f813590506111618161113d565b92915050565b5f6020828403121561117c5761117b610e13565b5b5f61118984828501611153565b91505092915050565b5f81519050919050565b5f82825260208201905092915050565b5f819050602082019050919050565b6111c481610e1b565b82525050565b5f6111d583836111bb565b60208301905092915050565b5f602082019050919050565b5f6111f782611192565b611201818561119c565b935061120c836111ac565b805f5b8381101561123c57815161122388826111ca565b975061122e836111e1565b92505060018101905061120f565b5085935050505092915050565b5f6020820190508181035f83015261126181846111ed565b905092915050565b7f4e487b71000000000000000000000000000000000000000000000000000000005f52602260045260245ffd5b5f60028204905060018216806112ad57607f821691505b6020821081036112c0576112bf611269565b5b50919050565b7f49504653204349442069732072657175697265640000000000000000000000005f82015250565b5f6112fa601483610e83565b9150611305826112c6565b602082019050919050565b5f6020820190508181035f830152611327816112ee565b9050919050565b7f47616d65206e616d6520697320726571756972656400000000000000000000005f82015250565b5f611362601583610e83565b915061136d8261132e565b602082019050919050565b5f6020820190508181035f83015261138f81611356565b9050919050565b7f4e487b71000000000000000000000000000000000000000000000000000000005f52601160045260245ffd5b5f6113cd82610e1b565b91507fffffffffffffffffffffffffffffffffffffffffffffffffffffffffffffffff82036113ff576113fe611396565b5b600182019050919050565b7f4e487b71000000000000000000000000000000000000000000000000000000005f52604160045260245ffd5b5f819050815f5260205f209050919050565b5f6020601f8301049050919050565b5f82821b905092915050565b5f600883026114937fffffffffffffffffffffffffffffffffffffffffffffffffffffffffffffffff82611458565b61149d8683611458565b95508019841693508086168417925050509392505050565b5f819050919050565b5f6114d86114d36114ce84610e1b565b6114b5565b610e1b565b9050919050565b5f819050919050565b6114f1836114be565b6115056114fd826114df565b848454611464565b825550505050565b5f5f905090565b61151c61150d565b6115278184846114e8565b505050565b5b8181101561154a5761153f5f82611514565b60018101905061152d565b5050565b601f82111561158f5761156081611437565b61156984611449565b81016020851015611578578190505b61158c61158485611449565b83018261152c565b50505b505050565b5f82821c905092915050565b5f6115af5f1984600802611594565b1980831691505092915050565b5f6115c783836115a0565b9150826002028217905092915050565b6115e082610e79565b67ffffffffffffffff8111156115f9576115f861140a565b5b6116038254611296565b61160e82828561154e565b5f60209050601f83116001811461163f575f841561162d578287015190505b61163785826115bc565b86555061169e565b601f19841661164d86611437565b5f5b828110156116745784890151825560018201915060208501945060208101905061164f565b86831015611691578489015161168d601f8916826115a0565b8355505b6001600288020188555050505b505050505050565b828183375f83830152505050565b5f6116bf8385610e83565b93506116cc8385846116a6565b6116d583610ea1565b840190509392505050565b5f6080820190508181035f8301526116f981898b6116b4565b9050818103602083015261170e8187896116b4565b905081810360408301526117238185876116b4565b90506117326060830184610f28565b98975050505050505050565b7f47616d6520646f6573206e6f74206578697374000000000000000000000000005f82015250565b5f611772601383610e83565b915061177d8261173e565b602082019050919050565b5f6020820190508181035f83015261179f81611766565b9050919050565b7f4f6e6c792063726561746f722063616e207570646174650000000000000000005f82015250565b5f6117da601783610e83565b91506117e5826117a6565b602082019050919050565b5f6020820190508181035f830152611807816117ce565b9050919050565b5f82905092915050565b611822838361180e565b67ffffffffffffffff81111561183b5761183a61140a565b5b6118458254611296565b61185082828561154e565b5f601f83116001811461187d575f841561186b578287013590505b61187585826115bc565b8655506118dc565b601f19841661188b86611437565b5f5b828110156118b25784890135825560018201915060208501945060208101905061188d565b868310156118cf57848901356118cb601f8916826115a0565b8355505b6001600288020188555050505b50505050505050565b5f6040820190508181035f8301526118fe8185876116b4565b905061190d6020830184610f28565b949350505050565b7f4e487b71000000000000000000000000000000000000000000000000000000005f52603260045260245ffdfea2646970667358221220b51207fae41ad8da0e2f75454d35cb44b0f6ca5ce694ed2f7a921f40e8c2dad864736f6c634300081c0033","linkReferences":{}},"methodIdentifiers":{"games(uint256)":"117a5b90","getGame(uint256)":"a2f77bcc","getGamesByCreator(address)":"9083e016","owner()":"8da5cb5b","registerGame(string,string,string)":"49c42467","renounceOwnership()":"715018a6","totalGames()":"2c4e591b","transferOwnership(address)":"f2fde38b","updateGame(uint256,string)":"84280e36"},"id":2}